{
  "_format": "hh-sol-artifact-1",
  "contractName": "ByteBunch",
  "sourceName": "contracts/ByteBunch.sol",
  "abi": [
    {
      "inputs": [],
      "stateMutability": "nonpayable",
      "type": "constructor"
    },
    {
      "anonymous": false,
      "inputs": [
        {
          "indexed": true,
          "internalType": "address",
          "name": "owner",
          "type": "address"
        },
        {
          "indexed": true,
          "internalType": "address",
          "name": "approved",
          "type": "address"
        },
        {
          "indexed": true,
          "internalType": "uint256",
          "name": "tokenId",
          "type": "uint256"
        }
      ],
      "name": "Approval",
      "type": "event"
    },
    {
      "anonymous": false,
      "inputs": [
        {
          "indexed": true,
          "internalType": "address",
          "name": "owner",
          "type": "address"
        },
        {
          "indexed": true,
          "internalType": "address",
          "name": "operator",
          "type": "address"
        },
        {
          "indexed": false,
          "internalType": "bool",
          "name": "approved",
          "type": "bool"
        }
      ],
      "name": "ApprovalForAll",
      "type": "event"
    },
    {
      "anonymous": false,
      "inputs": [
        {
          "indexed": true,
          "internalType": "address",
          "name": "previousOwner",
          "type": "address"
        },
        {
          "indexed": true,
          "internalType": "address",
          "name": "newOwner",
          "type": "address"
        }
      ],
      "name": "OwnershipTransferred",
      "type": "event"
    },
    {
      "anonymous": false,
      "inputs": [
        {
          "indexed": true,
          "internalType": "address",
          "name": "from",
          "type": "address"
        },
        {
          "indexed": true,
          "internalType": "address",
          "name": "to",
          "type": "address"
        },
        {
          "indexed": true,
          "internalType": "uint256",
          "name": "tokenId",
          "type": "uint256"
        }
      ],
      "name": "Transfer",
      "type": "event"
    },
    {
      "inputs": [
        {
          "internalType": "address",
          "name": "to",
          "type": "address"
        },
        {
          "internalType": "uint256",
          "name": "tokenId",
          "type": "uint256"
        }
      ],
      "name": "approve",
      "outputs": [],
      "stateMutability": "nonpayable",
      "type": "function"
    },
    {
      "inputs": [
        {
          "internalType": "address",
          "name": "owner",
          "type": "address"
        }
      ],
      "name": "balanceOf",
      "outputs": [
        {
          "internalType": "uint256",
          "name": "",
          "type": "uint256"
        }
      ],
      "stateMutability": "view",
      "type": "function"
    },
    {
      "inputs": [],
      "name": "cost",
      "outputs": [
        {
          "internalType": "uint256",
          "name": "",
          "type": "uint256"
        }
      ],
      "stateMutability": "view",
      "type": "function"
    },
    {
      "inputs": [
        {
          "internalType": "uint256",
          "name": "tokenId",
          "type": "uint256"
        }
      ],
      "name": "getApproved",
      "outputs": [
        {
          "internalType": "address",
          "name": "",
          "type": "address"
        }
      ],
      "stateMutability": "view",
      "type": "function"
    },
    {
      "inputs": [],
      "name": "hiddenMetadataUri",
      "outputs": [
        {
          "internalType": "string",
          "name": "",
          "type": "string"
        }
      ],
      "stateMutability": "view",
      "type": "function"
    },
    {
      "inputs": [
        {
          "internalType": "address",
          "name": "owner",
          "type": "address"
        },
        {
          "internalType": "address",
          "name": "operator",
          "type": "address"
        }
      ],
      "name": "isApprovedForAll",
      "outputs": [
        {
          "internalType": "bool",
          "name": "",
          "type": "bool"
        }
      ],
      "stateMutability": "view",
      "type": "function"
    },
    {
      "inputs": [],
      "name": "maxMintAmountPerTx",
      "outputs": [
        {
          "internalType": "uint256",
          "name": "",
          "type": "uint256"
        }
      ],
      "stateMutability": "view",
      "type": "function"
    },
    {
      "inputs": [],
      "name": "maxSupply",
      "outputs": [
        {
          "internalType": "uint256",
          "name": "",
          "type": "uint256"
        }
      ],
      "stateMutability": "view",
      "type": "function"
    },
    {
      "inputs": [
        {
          "internalType": "uint256",
          "name": "_mintAmount",
          "type": "uint256"
        }
      ],
      "name": "mint",
      "outputs": [],
      "stateMutability": "payable",
      "type": "function"
    },
    {
      "inputs": [
        {
          "internalType": "uint256",
          "name": "_mintAmount",
          "type": "uint256"
        },
        {
          "internalType": "address",
          "name": "_receiver",
          "type": "address"
        }
      ],
      "name": "mintForAddress",
      "outputs": [],
      "stateMutability": "nonpayable",
      "type": "function"
    },
    {
      "inputs": [],
      "name": "name",
      "outputs": [
        {
          "internalType": "string",
          "name": "",
          "type": "string"
        }
      ],
      "stateMutability": "view",
      "type": "function"
    },
    {
      "inputs": [],
      "name": "owner",
      "outputs": [
        {
          "internalType": "address",
          "name": "",
          "type": "address"
        }
      ],
      "stateMutability": "view",
      "type": "function"
    },
    {
      "inputs": [
        {
          "internalType": "uint256",
          "name": "tokenId",
          "type": "uint256"
        }
      ],
      "name": "ownerOf",
      "outputs": [
        {
          "internalType": "address",
          "name": "",
          "type": "address"
        }
      ],
      "stateMutability": "view",
      "type": "function"
    },
    {
      "inputs": [],
      "name": "paused",
      "outputs": [
        {
          "internalType": "bool",
          "name": "",
          "type": "bool"
        }
      ],
      "stateMutability": "view",
      "type": "function"
    },
    {
      "inputs": [],
      "name": "renounceOwnership",
      "outputs": [],
      "stateMutability": "nonpayable",
      "type": "function"
    },
    {
      "inputs": [],
      "name": "revealed",
      "outputs": [
        {
          "internalType": "bool",
          "name": "",
          "type": "bool"
        }
      ],
      "stateMutability": "view",
      "type": "function"
    },
    {
      "inputs": [
        {
          "internalType": "address",
          "name": "from",
          "type": "address"
        },
        {
          "internalType": "address",
          "name": "to",
          "type": "address"
        },
        {
          "internalType": "uint256",
          "name": "tokenId",
          "type": "uint256"
        }
      ],
      "name": "safeTransferFrom",
      "outputs": [],
      "stateMutability": "nonpayable",
      "type": "function"
    },
    {
      "inputs": [
        {
          "internalType": "address",
          "name": "from",
          "type": "address"
        },
        {
          "internalType": "address",
          "name": "to",
          "type": "address"
        },
        {
          "internalType": "uint256",
          "name": "tokenId",
          "type": "uint256"
        },
        {
          "internalType": "bytes",
          "name": "data",
          "type": "bytes"
        }
      ],
      "name": "safeTransferFrom",
      "outputs": [],
      "stateMutability": "nonpayable",
      "type": "function"
    },
    {
      "inputs": [
        {
          "internalType": "address",
          "name": "operator",
          "type": "address"
        },
        {
          "internalType": "bool",
          "name": "approved",
          "type": "bool"
        }
      ],
      "name": "setApprovalForAll",
      "outputs": [],
      "stateMutability": "nonpayable",
      "type": "function"
    },
    {
      "inputs": [
        {
          "internalType": "uint256",
          "name": "_cost",
          "type": "uint256"
        }
      ],
      "name": "setCost",
      "outputs": [],
      "stateMutability": "nonpayable",
      "type": "function"
    },
    {
      "inputs": [
        {
          "internalType": "string",
          "name": "_hiddenMetadataUri",
          "type": "string"
        }
      ],
      "name": "setHiddenMetadataUri",
      "outputs": [],
      "stateMutability": "nonpayable",
      "type": "function"
    },
    {
      "inputs": [
        {
          "internalType": "uint256",
          "name": "_maxMintAmountPerTx",
          "type": "uint256"
        }
      ],
      "name": "setMaxMintAmountPerTx",
      "outputs": [],
      "stateMutability": "nonpayable",
      "type": "function"
    },
    {
      "inputs": [
        {
          "internalType": "bool",
          "name": "_state",
          "type": "bool"
        }
      ],
      "name": "setPaused",
      "outputs": [],
      "stateMutability": "nonpayable",
      "type": "function"
    },
    {
      "inputs": [
        {
          "internalType": "bool",
          "name": "_state",
          "type": "bool"
        }
      ],
      "name": "setRevealed",
      "outputs": [],
      "stateMutability": "nonpayable",
      "type": "function"
    },
    {
      "inputs": [
        {
          "internalType": "string",
          "name": "_uriPrefix",
          "type": "string"
        }
      ],
      "name": "setUriPrefix",
      "outputs": [],
      "stateMutability": "nonpayable",
      "type": "function"
    },
    {
      "inputs": [
        {
          "internalType": "string",
          "name": "_uriSuffix",
          "type": "string"
        }
      ],
      "name": "setUriSuffix",
      "outputs": [],
      "stateMutability": "nonpayable",
      "type": "function"
    },
    {
      "inputs": [
        {
          "internalType": "bytes4",
          "name": "interfaceId",
          "type": "bytes4"
        }
      ],
      "name": "supportsInterface",
      "outputs": [
        {
          "internalType": "bool",
          "name": "",
          "type": "bool"
        }
      ],
      "stateMutability": "view",
      "type": "function"
    },
    {
      "inputs": [],
      "name": "symbol",
      "outputs": [
        {
          "internalType": "string",
          "name": "",
          "type": "string"
        }
      ],
      "stateMutability": "view",
      "type": "function"
    },
    {
      "inputs": [
        {
          "internalType": "uint256",
          "name": "_tokenId",
          "type": "uint256"
        }
      ],
      "name": "tokenURI",
      "outputs": [
        {
          "internalType": "string",
          "name": "",
          "type": "string"
        }
      ],
      "stateMutability": "view",
      "type": "function"
    },
    {
      "inputs": [],
      "name": "totalSupply",
      "outputs": [
        {
          "internalType": "uint256",
          "name": "",
          "type": "uint256"
        }
      ],
      "stateMutability": "view",
      "type": "function"
    },
    {
      "inputs": [
        {
          "internalType": "address",
          "name": "from",
          "type": "address"
        },
        {
          "internalType": "address",
          "name": "to",
          "type": "address"
        },
        {
          "internalType": "uint256",
          "name": "tokenId",
          "type": "uint256"
        }
      ],
      "name": "transferFrom",
      "outputs": [],
      "stateMutability": "nonpayable",
      "type": "function"
    },
    {
      "inputs": [
        {
          "internalType": "address",
          "name": "newOwner",
          "type": "address"
        }
      ],
      "name": "transferOwnership",
      "outputs": [],
      "stateMutability": "nonpayable",
      "type": "function"
    },
    {
      "inputs": [],
      "name": "uriPrefix",
      "outputs": [
        {
          "internalType": "string",
          "name": "",
          "type": "string"
        }
      ],
      "stateMutability": "view",
      "type": "function"
    },
    {
      "inputs": [],
      "name": "uriSuffix",
      "outputs": [
        {
          "internalType": "string",
          "name": "",
          "type": "string"
        }
      ],
      "stateMutability": "view",
      "type": "function"
    },
    {
      "inputs": [
        {
          "internalType": "address",
          "name": "_owner",
          "type": "address"
        }
      ],
      "name": "walletOfOwner",
      "outputs": [
        {
          "internalType": "uint256[]",
          "name": "",
          "type": "uint256[]"
        }
      ],
      "stateMutability": "view",
      "type": "function"
    },
    {
      "inputs": [],
      "name": "withdraw",
      "outputs": [],
      "stateMutability": "nonpayable",
      "type": "function"
    }
  ],
  "bytecode": "0x608060405260405180602001604052806000815250600890805190602001906200002b92919062000378565b506040518060400160405280600581526020017f2e6a736f6e000000000000000000000000000000000000000000000000000000815250600990805190602001906200007992919062000378565b50668e1bc9bf040000600b556029600c556001600d556001600e60006101000a81548160ff0219169083151502179055506000600e60016101000a81548160ff021916908315150217905550348015620000d257600080fd5b506040518060400160405280600a81526020017f427974652042756e6368000000000000000000000000000000000000000000008152506040518060400160405280600481526020017f424243480000000000000000000000000000000000000000000000000000000081525081600090805190602001906200015792919062000378565b5080600190805190602001906200017092919062000378565b5050506200019362000187620001c360201b60201c565b620001cb60201b60201c565b620001bd604051806080016040528060418152602001620042cc604191396200029160201b60201c565b62000510565b600033905090565b6000600660009054906101000a900473ffffffffffffffffffffffffffffffffffffffff16905081600660006101000a81548173ffffffffffffffffffffffffffffffffffffffff021916908373ffffffffffffffffffffffffffffffffffffffff1602179055508173ffffffffffffffffffffffffffffffffffffffff168173ffffffffffffffffffffffffffffffffffffffff167f8be0079c531659141344cd1fd0a4f28419497f9722a3daafe3b4186f6b6457e060405160405180910390a35050565b620002a1620002bd60201b60201c565b80600a9080519060200190620002b992919062000378565b5050565b620002cd620001c360201b60201c565b73ffffffffffffffffffffffffffffffffffffffff16620002f36200034e60201b60201c565b73ffffffffffffffffffffffffffffffffffffffff16146200034c576040517f08c379a000000000000000000000000000000000000000000000000000000000815260040162000343906200044f565b60405180910390fd5b565b6000600660009054906101000a900473ffffffffffffffffffffffffffffffffffffffff16905090565b828054620003869062000482565b90600052602060002090601f016020900481019282620003aa5760008555620003f6565b82601f10620003c557805160ff1916838001178555620003f6565b82800160010185558215620003f6579182015b82811115620003f5578251825591602001919060010190620003d8565b5b50905062000405919062000409565b5090565b5b80821115620004245760008160009055506001016200040a565b5090565b60006200043760208362000471565b91506200044482620004e7565b602082019050919050565b600060208201905081810360008301526200046a8162000428565b9050919050565b600082825260208201905092915050565b600060028204905060018216806200049b57607f821691505b60208210811415620004b257620004b1620004b8565b5b50919050565b7f4e487b7100000000000000000000000000000000000000000000000000000000600052602260045260246000fd5b7f4f776e61626c653a2063616c6c6572206973206e6f7420746865206f776e6572600082015250565b613dac80620005206000396000f3fe60806040526004361061020f5760003560e01c80636352211e11610118578063a45ba8e7116100a0578063d5abeb011161006f578063d5abeb0114610768578063e0a8085314610793578063e985e9c5146107bc578063efbd73f4146107f9578063f2fde38b146108225761020f565b8063a45ba8e7146106ae578063b071401b146106d9578063b88d4fde14610702578063c87b56dd1461072b5761020f565b80638da5cb5b116100e75780638da5cb5b146105e857806394354fd01461061357806395d89b411461063e578063a0712d6814610669578063a22cb465146106855761020f565b80636352211e1461052e57806370a082311461056b578063715018a6146105a85780637ec4a659146105bf5761020f565b80633ccfd60b1161019b5780634fdd43cb1161016a5780634fdd43cb1461045957806351830227146104825780635503a0e8146104ad5780635c975abb146104d857806362b99ad4146105035761020f565b80633ccfd60b146103b357806342842e0e146103ca578063438b6300146103f357806344a0d68a146104305761020f565b806313faede6116101e257806313faede6146102e257806316ba10e01461030d57806316c38b3c1461033657806318160ddd1461035f57806323b872dd1461038a5761020f565b806301ffc9a71461021457806306fdde0314610251578063081812fc1461027c578063095ea7b3146102b9575b600080fd5b34801561022057600080fd5b5061023b60048036038101906102369190612c40565b61084b565b6040516102489190613274565b60405180910390f35b34801561025d57600080fd5b5061026661092d565b604051610273919061328f565b60405180910390f35b34801561028857600080fd5b506102a3600480360381019061029e9190612cd3565b6109bf565b6040516102b091906131eb565b60405180910390f35b3480156102c557600080fd5b506102e060048036038101906102db9190612bdb565b610a05565b005b3480156102ee57600080fd5b506102f7610b1d565b60405161030491906134f1565b60405180910390f35b34801561031957600080fd5b50610334600480360381019061032f9190612c92565b610b23565b005b34801561034257600080fd5b5061035d60048036038101906103589190612c17565b610b45565b005b34801561036b57600080fd5b50610374610b6a565b60405161038191906134f1565b60405180910390f35b34801561039657600080fd5b506103b160048036038101906103ac9190612ad5565b610b7b565b005b3480156103bf57600080fd5b506103c8610bdb565b005b3480156103d657600080fd5b506103f160048036038101906103ec9190612ad5565b610c63565b005b3480156103ff57600080fd5b5061041a60048036038101906104159190612a70565b610c83565b6040516104279190613252565b60405180910390f35b34801561043c57600080fd5b5061045760048036038101906104529190612cd3565b610dda565b005b34801561046557600080fd5b50610480600480360381019061047b9190612c92565b610dec565b005b34801561048e57600080fd5b50610497610e0e565b6040516104a49190613274565b60405180910390f35b3480156104b957600080fd5b506104c2610e21565b6040516104cf919061328f565b60405180910390f35b3480156104e457600080fd5b506104ed610eaf565b6040516104fa9190613274565b60405180910390f35b34801561050f57600080fd5b50610518610ec2565b604051610525919061328f565b60405180910390f35b34801561053a57600080fd5b5061055560048036038101906105509190612cd3565b610f50565b60405161056291906131eb565b60405180910390f35b34801561057757600080fd5b50610592600480360381019061058d9190612a70565b610fd7565b60405161059f91906134f1565b60405180910390f35b3480156105b457600080fd5b506105bd61108f565b005b3480156105cb57600080fd5b506105e660048036038101906105e19190612c92565b6110a3565b005b3480156105f457600080fd5b506105fd6110c5565b60405161060a91906131eb565b60405180910390f35b34801561061f57600080fd5b506106286110ef565b60405161063591906134f1565b60405180910390f35b34801561064a57600080fd5b506106536110f5565b604051610660919061328f565b60405180910390f35b610683600480360381019061067e9190612cd3565b611187565b005b34801561069157600080fd5b506106ac60048036038101906106a79190612b9f565b6112e0565b005b3480156106ba57600080fd5b506106c36112f6565b6040516106d0919061328f565b60405180910390f35b3480156106e557600080fd5b5061070060048036038101906106fb9190612cd3565b611384565b005b34801561070e57600080fd5b5061072960048036038101906107249190612b24565b611396565b005b34801561073757600080fd5b50610752600480360381019061074d9190612cd3565b6113f8565b60405161075f919061328f565b60405180910390f35b34801561077457600080fd5b5061077d611551565b60405161078a91906134f1565b60405180910390f35b34801561079f57600080fd5b506107ba60048036038101906107b59190612c17565b611557565b005b3480156107c857600080fd5b506107e360048036038101906107de9190612a99565b61157c565b6040516107f09190613274565b60405180910390f35b34801561080557600080fd5b50610820600480360381019061081b9190612cfc565b611610565b005b34801561082e57600080fd5b5061084960048036038101906108449190612a70565b6116d2565b005b60007f80ac58cd000000000000000000000000000000000000000000000000000000007bffffffffffffffffffffffffffffffffffffffffffffffffffffffff1916827bffffffffffffffffffffffffffffffffffffffffffffffffffffffff1916148061091657507f5b5e139f000000000000000000000000000000000000000000000000000000007bffffffffffffffffffffffffffffffffffffffffffffffffffffffff1916827bffffffffffffffffffffffffffffffffffffffffffffffffffffffff1916145b80610926575061092582611756565b5b9050919050565b60606000805461093c90613795565b80601f016020809104026020016040519081016040528092919081815260200182805461096890613795565b80156109b55780601f1061098a576101008083540402835291602001916109b5565b820191906000526020600020905b81548152906001019060200180831161099857829003601f168201915b5050505050905090565b60006109ca826117c0565b6004600083815260200190815260200160002060009054906101000a900473ffffffffffffffffffffffffffffffffffffffff169050919050565b6000610a1082610f50565b90508073ffffffffffffffffffffffffffffffffffffffff168373ffffffffffffffffffffffffffffffffffffffff161415610a81576040517f08c379a0000000000000000000000000000000000000000000000000000000008152600401610a7890613471565b60405180910390fd5b8073ffffffffffffffffffffffffffffffffffffffff16610aa061180b565b73ffffffffffffffffffffffffffffffffffffffff161480610acf5750610ace81610ac961180b565b61157c565b5b610b0e576040517f08c379a0000000000000000000000000000000000000000000000000000000008152600401610b05906134b1565b60405180910390fd5b610b188383611813565b505050565b600b5481565b610b2b6118cc565b8060099080519060200190610b41929190612894565b5050565b610b4d6118cc565b80600e60006101000a81548160ff02191690831515021790555050565b6000610b76600761194a565b905090565b610b8c610b8661180b565b82611958565b610bcb576040517f08c379a0000000000000000000000000000000000000000000000000000000008152600401610bc2906132b1565b60405180910390fd5b610bd68383836119ed565b505050565b610be36118cc565b6000610bed6110c5565b73ffffffffffffffffffffffffffffffffffffffff1647604051610c10906131d6565b60006040518083038185875af1925050503d8060008114610c4d576040519150601f19603f3d011682016040523d82523d6000602084013e610c52565b606091505b5050905080610c6057600080fd5b50565b610c7e83838360405180602001604052806000815250611396565b505050565b60606000610c9083610fd7565b905060008167ffffffffffffffff811115610cd4577f4e487b7100000000000000000000000000000000000000000000000000000000600052604160045260246000fd5b604051908082528060200260200182016040528015610d025781602001602082028036833780820191505090505b50905060006001905060005b8381108015610d1f5750600c548211155b15610dce576000610d2f83610f50565b90508673ffffffffffffffffffffffffffffffffffffffff168173ffffffffffffffffffffffffffffffffffffffff161415610dba5782848381518110610d9f577f4e487b7100000000000000000000000000000000000000000000000000000000600052603260045260246000fd5b6020026020010181815250508180610db6906137f8565b9250505b8280610dc5906137f8565b93505050610d0e565b82945050505050919050565b610de26118cc565b80600b8190555050565b610df46118cc565b80600a9080519060200190610e0a929190612894565b5050565b600e60019054906101000a900460ff1681565b60098054610e2e90613795565b80601f0160208091040260200160405190810160405280929190818152602001828054610e5a90613795565b8015610ea75780601f10610e7c57610100808354040283529160200191610ea7565b820191906000526020600020905b815481529060010190602001808311610e8a57829003601f168201915b505050505081565b600e60009054906101000a900460ff1681565b60088054610ecf90613795565b80601f0160208091040260200160405190810160405280929190818152602001828054610efb90613795565b8015610f485780601f10610f1d57610100808354040283529160200191610f48565b820191906000526020600020905b815481529060010190602001808311610f2b57829003601f168201915b505050505081565b600080610f5c83611ce7565b9050600073ffffffffffffffffffffffffffffffffffffffff168173ffffffffffffffffffffffffffffffffffffffff161415610fce576040517f08c379a0000000000000000000000000000000000000000000000000000000008152600401610fc590613451565b60405180910390fd5b80915050919050565b60008073ffffffffffffffffffffffffffffffffffffffff168273ffffffffffffffffffffffffffffffffffffffff161415611048576040517f08c379a000000000000000000000000000000000000000000000000000000000815260040161103f906133b1565b60405180910390fd5b600360008373ffffffffffffffffffffffffffffffffffffffff1673ffffffffffffffffffffffffffffffffffffffff168152602001908152602001600020549050919050565b6110976118cc565b6110a16000611d24565b565b6110ab6118cc565b80600890805190602001906110c1929190612894565b5050565b6000600660009054906101000a900473ffffffffffffffffffffffffffffffffffffffff16905090565b600d5481565b60606001805461110490613795565b80601f016020809104026020016040519081016040528092919081815260200182805461113090613795565b801561117d5780601f106111525761010080835404028352916020019161117d565b820191906000526020600020905b81548152906001019060200180831161116057829003601f168201915b5050505050905090565b8060008111801561119a5750600d548111155b6111d9576040517f08c379a00000000000000000000000000000000000000000000000000000000081526004016111d090613351565b60405180910390fd5b600c54816111e7600761194a565b6111f1919061362f565b1115611232576040517f08c379a000000000000000000000000000000000000000000000000000000000815260040161122990613491565b60405180910390fd5b600e60009054906101000a900460ff1615611282576040517f08c379a000000000000000000000000000000000000000000000000000000000815260040161127990613411565b60405180910390fd5b81600b546112909190613685565b3410156112d2576040517f08c379a00000000000000000000000000000000000000000000000000000000081526004016112c9906134d1565b60405180910390fd5b6112dc3383611dea565b5050565b6112f26112eb61180b565b8383611e2a565b5050565b600a805461130390613795565b80601f016020809104026020016040519081016040528092919081815260200182805461132f90613795565b801561137c5780601f106113515761010080835404028352916020019161137c565b820191906000526020600020905b81548152906001019060200180831161135f57829003601f168201915b505050505081565b61138c6118cc565b80600d8190555050565b6113a76113a161180b565b83611958565b6113e6576040517f08c379a00000000000000000000000000000000000000000000000000000000081526004016113dd906132b1565b60405180910390fd5b6113f284848484611f97565b50505050565b606061140382611ff3565b611442576040517f08c379a000000000000000000000000000000000000000000000000000000000815260040161143990613431565b60405180910390fd5b60001515600e60019054906101000a900460ff16151514156114f057600a805461146b90613795565b80601f016020809104026020016040519081016040528092919081815260200182805461149790613795565b80156114e45780601f106114b9576101008083540402835291602001916114e4565b820191906000526020600020905b8154815290600101906020018083116114c757829003601f168201915b5050505050905061154c565b60006114fa612034565b9050600081511161151a5760405180602001604052806000815250611548565b80611524846120c6565b6009604051602001611538939291906131a5565b6040516020818303038152906040525b9150505b919050565b600c5481565b61155f6118cc565b80600e60016101000a81548160ff02191690831515021790555050565b6000600560008473ffffffffffffffffffffffffffffffffffffffff1673ffffffffffffffffffffffffffffffffffffffff16815260200190815260200160002060008373ffffffffffffffffffffffffffffffffffffffff1673ffffffffffffffffffffffffffffffffffffffff16815260200190815260200160002060009054906101000a900460ff16905092915050565b816000811180156116235750600d548111155b611662576040517f08c379a000000000000000000000000000000000000000000000000000000000815260040161165990613351565b60405180910390fd5b600c5481611670600761194a565b61167a919061362f565b11156116bb576040517f08c379a00000000000000000000000000000000000000000000000000000000081526004016116b290613491565b60405180910390fd5b6116c36118cc565b6116cd8284611dea565b505050565b6116da6118cc565b600073ffffffffffffffffffffffffffffffffffffffff168173ffffffffffffffffffffffffffffffffffffffff16141561174a576040517f08c379a0000000000000000000000000000000000000000000000000000000008152600401611741906132f1565b60405180910390fd5b61175381611d24565b50565b60007f01ffc9a7000000000000000000000000000000000000000000000000000000007bffffffffffffffffffffffffffffffffffffffffffffffffffffffff1916827bffffffffffffffffffffffffffffffffffffffffffffffffffffffff1916149050919050565b6117c981611ff3565b611808576040517f08c379a00000000000000000000000000000000000000000000000000000000081526004016117ff90613451565b60405180910390fd5b50565b600033905090565b816004600083815260200190815260200160002060006101000a81548173ffffffffffffffffffffffffffffffffffffffff021916908373ffffffffffffffffffffffffffffffffffffffff160217905550808273ffffffffffffffffffffffffffffffffffffffff1661188683610f50565b73ffffffffffffffffffffffffffffffffffffffff167f8c5be1e5ebec7d5bd14f71427d1e84f3dd0314c0f7b2291e5b200ac8c7c3b92560405160405180910390a45050565b6118d461180b565b73ffffffffffffffffffffffffffffffffffffffff166118f26110c5565b73ffffffffffffffffffffffffffffffffffffffff1614611948576040517f08c379a000000000000000000000000000000000000000000000000000000000815260040161193f906133f1565b60405180910390fd5b565b600081600001549050919050565b60008061196483610f50565b90508073ffffffffffffffffffffffffffffffffffffffff168473ffffffffffffffffffffffffffffffffffffffff1614806119a657506119a5818561157c565b5b806119e457508373ffffffffffffffffffffffffffffffffffffffff166119cc846109bf565b73ffffffffffffffffffffffffffffffffffffffff16145b91505092915050565b8273ffffffffffffffffffffffffffffffffffffffff16611a0d82610f50565b73ffffffffffffffffffffffffffffffffffffffff1614611a63576040517f08c379a0000000000000000000000000000000000000000000000000000000008152600401611a5a90613311565b60405180910390fd5b600073ffffffffffffffffffffffffffffffffffffffff168273ffffffffffffffffffffffffffffffffffffffff161415611ad3576040517f08c379a0000000000000000000000000000000000000000000000000000000008152600401611aca90613371565b60405180910390fd5b611ae083838360016121ea565b8273ffffffffffffffffffffffffffffffffffffffff16611b0082610f50565b73ffffffffffffffffffffffffffffffffffffffff1614611b56576040517f08c379a0000000000000000000000000000000000000000000000000000000008152600401611b4d90613311565b60405180910390fd5b6004600082815260200190815260200160002060006101000a81549073ffffffffffffffffffffffffffffffffffffffff02191690556001600360008573ffffffffffffffffffffffffffffffffffffffff1673ffffffffffffffffffffffffffffffffffffffff168152602001908152602001600020600082825403925050819055506001600360008473ffffffffffffffffffffffffffffffffffffffff1673ffffffffffffffffffffffffffffffffffffffff16815260200190815260200160002060008282540192505081905550816002600083815260200190815260200160002060006101000a81548173ffffffffffffffffffffffffffffffffffffffff021916908373ffffffffffffffffffffffffffffffffffffffff160217905550808273ffffffffffffffffffffffffffffffffffffffff168473ffffffffffffffffffffffffffffffffffffffff167fddf252ad1be2c89b69c2b068fc378daa952ba7f163c4a11628f55a4df523b3ef60405160405180910390a4611ce283838360016121f0565b505050565b60006002600083815260200190815260200160002060009054906101000a900473ffffffffffffffffffffffffffffffffffffffff169050919050565b6000600660009054906101000a900473ffffffffffffffffffffffffffffffffffffffff16905081600660006101000a81548173ffffffffffffffffffffffffffffffffffffffff021916908373ffffffffffffffffffffffffffffffffffffffff1602179055508173ffffffffffffffffffffffffffffffffffffffff168173ffffffffffffffffffffffffffffffffffffffff167f8be0079c531659141344cd1fd0a4f28419497f9722a3daafe3b4186f6b6457e060405160405180910390a35050565b60005b81811015611e2557611dff60076121f6565b611e1283611e0d600761194a565b61220c565b8080611e1d906137f8565b915050611ded565b505050565b8173ffffffffffffffffffffffffffffffffffffffff168373ffffffffffffffffffffffffffffffffffffffff161415611e99576040517f08c379a0000000000000000000000000000000000000000000000000000000008152600401611e9090613391565b60405180910390fd5b80600560008573ffffffffffffffffffffffffffffffffffffffff1673ffffffffffffffffffffffffffffffffffffffff16815260200190815260200160002060008473ffffffffffffffffffffffffffffffffffffffff1673ffffffffffffffffffffffffffffffffffffffff16815260200190815260200160002060006101000a81548160ff0219169083151502179055508173ffffffffffffffffffffffffffffffffffffffff168373ffffffffffffffffffffffffffffffffffffffff167f17307eab39ab6107e8899845ad3d59bd9653f200f220920489ca2b5937696c3183604051611f8a9190613274565b60405180910390a3505050565b611fa28484846119ed565b611fae8484848461222a565b611fed576040517f08c379a0000000000000000000000000000000000000000000000000000000008152600401611fe4906132d1565b60405180910390fd5b50505050565b60008073ffffffffffffffffffffffffffffffffffffffff1661201583611ce7565b73ffffffffffffffffffffffffffffffffffffffff1614159050919050565b60606008805461204390613795565b80601f016020809104026020016040519081016040528092919081815260200182805461206f90613795565b80156120bc5780601f10612091576101008083540402835291602001916120bc565b820191906000526020600020905b81548152906001019060200180831161209f57829003601f168201915b5050505050905090565b6060600060016120d5846123c1565b01905060008167ffffffffffffffff81111561211a577f4e487b7100000000000000000000000000000000000000000000000000000000600052604160045260246000fd5b6040519080825280601f01601f19166020018201604052801561214c5781602001600182028036833780820191505090505b509050600082602001820190505b6001156121df578080600190039150507f3031323334353637383961626364656600000000000000000000000000000000600a86061a8153600a85816121c9577f4e487b7100000000000000000000000000000000000000000000000000000000600052601260045260246000fd5b04945060008514156121da576121df565b61215a565b819350505050919050565b50505050565b50505050565b6001816000016000828254019250508190555050565b6122268282604051806020016040528060008152506125f8565b5050565b600061224b8473ffffffffffffffffffffffffffffffffffffffff16612653565b156123b4578373ffffffffffffffffffffffffffffffffffffffff1663150b7a0261227461180b565b8786866040518563ffffffff1660e01b81526004016122969493929190613206565b602060405180830381600087803b1580156122b057600080fd5b505af19250505080156122e157506040513d601f19601f820116820180604052508101906122de9190612c69565b60015b612364573d8060008114612311576040519150601f19603f3d011682016040523d82523d6000602084013e612316565b606091505b5060008151141561235c576040517f08c379a0000000000000000000000000000000000000000000000000000000008152600401612353906132d1565b60405180910390fd5b805181602001fd5b63150b7a0260e01b7bffffffffffffffffffffffffffffffffffffffffffffffffffffffff1916817bffffffffffffffffffffffffffffffffffffffffffffffffffffffff1916149150506123b9565b600190505b949350505050565b600080600090507a184f03e93ff9f4daa797ed6e38ed64bf6a1f0100000000000000008310612445577a184f03e93ff9f4daa797ed6e38ed64bf6a1f010000000000000000838161243b577f4e487b7100000000000000000000000000000000000000000000000000000000600052601260045260246000fd5b0492506040810190505b6d04ee2d6d415b85acef810000000083106124a8576d04ee2d6d415b85acef8100000000838161249e577f4e487b7100000000000000000000000000000000000000000000000000000000600052601260045260246000fd5b0492506020810190505b662386f26fc1000083106124fd57662386f26fc1000083816124f3577f4e487b7100000000000000000000000000000000000000000000000000000000600052601260045260246000fd5b0492506010810190505b6305f5e100831061254c576305f5e1008381612542577f4e487b7100000000000000000000000000000000000000000000000000000000600052601260045260246000fd5b0492506008810190505b612710831061259757612710838161258d577f4e487b7100000000000000000000000000000000000000000000000000000000600052601260045260246000fd5b0492506004810190505b606483106125e057606483816125d6577f4e487b7100000000000000000000000000000000000000000000000000000000600052601260045260246000fd5b0492506002810190505b600a83106125ef576001810190505b80915050919050565b6126028383612676565b61260f600084848461222a565b61264e576040517f08c379a0000000000000000000000000000000000000000000000000000000008152600401612645906132d1565b60405180910390fd5b505050565b6000808273ffffffffffffffffffffffffffffffffffffffff163b119050919050565b600073ffffffffffffffffffffffffffffffffffffffff168273ffffffffffffffffffffffffffffffffffffffff1614156126e6576040517f08c379a00000000000000000000000000000000000000000000000000000000081526004016126dd906133d1565b60405180910390fd5b6126ef81611ff3565b1561272f576040517f08c379a000000000000000000000000000000000000000000000000000000000815260040161272690613331565b60405180910390fd5b61273d6000838360016121ea565b61274681611ff3565b15612786576040517f08c379a000000000000000000000000000000000000000000000000000000000815260040161277d90613331565b60405180910390fd5b6001600360008473ffffffffffffffffffffffffffffffffffffffff1673ffffffffffffffffffffffffffffffffffffffff16815260200190815260200160002060008282540192505081905550816002600083815260200190815260200160002060006101000a81548173ffffffffffffffffffffffffffffffffffffffff021916908373ffffffffffffffffffffffffffffffffffffffff160217905550808273ffffffffffffffffffffffffffffffffffffffff16600073ffffffffffffffffffffffffffffffffffffffff167fddf252ad1be2c89b69c2b068fc378daa952ba7f163c4a11628f55a4df523b3ef60405160405180910390a46128906000838360016121f0565b5050565b8280546128a090613795565b90600052602060002090601f0160209004810192826128c25760008555612909565b82601f106128db57805160ff1916838001178555612909565b82800160010185558215612909579182015b828111156129085782518255916020019190600101906128ed565b5b509050612916919061291a565b5090565b5b8082111561293357600081600090555060010161291b565b5090565b600061294a61294584613531565b61350c565b90508281526020810184848401111561296257600080fd5b61296d848285613753565b509392505050565b600061298861298384613562565b61350c565b9050828152602081018484840111156129a057600080fd5b6129ab848285613753565b509392505050565b6000813590506129c281613d1a565b92915050565b6000813590506129d781613d31565b92915050565b6000813590506129ec81613d48565b92915050565b600081519050612a0181613d48565b92915050565b600082601f830112612a1857600080fd5b8135612a28848260208601612937565b91505092915050565b600082601f830112612a4257600080fd5b8135612a52848260208601612975565b91505092915050565b600081359050612a6a81613d5f565b92915050565b600060208284031215612a8257600080fd5b6000612a90848285016129b3565b91505092915050565b60008060408385031215612aac57600080fd5b6000612aba858286016129b3565b9250506020612acb858286016129b3565b9150509250929050565b600080600060608486031215612aea57600080fd5b6000612af8868287016129b3565b9350506020612b09868287016129b3565b9250506040612b1a86828701612a5b565b9150509250925092565b60008060008060808587031215612b3a57600080fd5b6000612b48878288016129b3565b9450506020612b59878288016129b3565b9350506040612b6a87828801612a5b565b925050606085013567ffffffffffffffff811115612b8757600080fd5b612b9387828801612a07565b91505092959194509250565b60008060408385031215612bb257600080fd5b6000612bc0858286016129b3565b9250506020612bd1858286016129c8565b9150509250929050565b60008060408385031215612bee57600080fd5b6000612bfc858286016129b3565b9250506020612c0d85828601612a5b565b9150509250929050565b600060208284031215612c2957600080fd5b6000612c37848285016129c8565b91505092915050565b600060208284031215612c5257600080fd5b6000612c60848285016129dd565b91505092915050565b600060208284031215612c7b57600080fd5b6000612c89848285016129f2565b91505092915050565b600060208284031215612ca457600080fd5b600082013567ffffffffffffffff811115612cbe57600080fd5b612cca84828501612a31565b91505092915050565b600060208284031215612ce557600080fd5b6000612cf384828501612a5b565b91505092915050565b60008060408385031215612d0f57600080fd5b6000612d1d85828601612a5b565b9250506020612d2e858286016129b3565b9150509250929050565b6000612d448383613187565b60208301905092915050565b612d59816136df565b82525050565b6000612d6a826135b8565b612d7481856135e6565b9350612d7f83613593565b8060005b83811015612db0578151612d978882612d38565b9750612da2836135d9565b925050600181019050612d83565b5085935050505092915050565b612dc6816136f1565b82525050565b6000612dd7826135c3565b612de181856135f7565b9350612df1818560208601613762565b612dfa816138ce565b840191505092915050565b6000612e10826135ce565b612e1a8185613613565b9350612e2a818560208601613762565b612e33816138ce565b840191505092915050565b6000612e49826135ce565b612e538185613624565b9350612e63818560208601613762565b80840191505092915050565b60008154612e7c81613795565b612e868186613624565b94506001821660008114612ea15760018114612eb257612ee5565b60ff19831686528186019350612ee5565b612ebb856135a3565b60005b83811015612edd57815481890152600182019150602081019050612ebe565b838801955050505b50505092915050565b6000612efb602d83613613565b9150612f06826138df565b604082019050919050565b6000612f1e603283613613565b9150612f298261392e565b604082019050919050565b6000612f41602683613613565b9150612f4c8261397d565b604082019050919050565b6000612f64602583613613565b9150612f6f826139cc565b604082019050919050565b6000612f87601c83613613565b9150612f9282613a1b565b602082019050919050565b6000612faa601483613613565b9150612fb582613a44565b602082019050919050565b6000612fcd602483613613565b9150612fd882613a6d565b604082019050919050565b6000612ff0601983613613565b9150612ffb82613abc565b602082019050919050565b6000613013602983613613565b915061301e82613ae5565b604082019050919050565b6000613036602083613613565b915061304182613b34565b602082019050919050565b6000613059602083613613565b915061306482613b5d565b602082019050919050565b600061307c601783613613565b915061308782613b86565b602082019050919050565b600061309f602f83613613565b91506130aa82613baf565b604082019050919050565b60006130c2601883613613565b91506130cd82613bfe565b602082019050919050565b60006130e5602183613613565b91506130f082613c27565b604082019050919050565b6000613108600083613608565b915061311382613c76565b600082019050919050565b600061312b601483613613565b915061313682613c79565b602082019050919050565b600061314e603d83613613565b915061315982613ca2565b604082019050919050565b6000613171601383613613565b915061317c82613cf1565b602082019050919050565b61319081613749565b82525050565b61319f81613749565b82525050565b60006131b18286612e3e565b91506131bd8285612e3e565b91506131c98284612e6f565b9150819050949350505050565b60006131e1826130fb565b9150819050919050565b60006020820190506132006000830184612d50565b92915050565b600060808201905061321b6000830187612d50565b6132286020830186612d50565b6132356040830185613196565b81810360608301526132478184612dcc565b905095945050505050565b6000602082019050818103600083015261326c8184612d5f565b905092915050565b60006020820190506132896000830184612dbd565b92915050565b600060208201905081810360008301526132a98184612e05565b905092915050565b600060208201905081810360008301526132ca81612eee565b9050919050565b600060208201905081810360008301526132ea81612f11565b9050919050565b6000602082019050818103600083015261330a81612f34565b9050919050565b6000602082019050818103600083015261332a81612f57565b9050919050565b6000602082019050818103600083015261334a81612f7a565b9050919050565b6000602082019050818103600083015261336a81612f9d565b9050919050565b6000602082019050818103600083015261338a81612fc0565b9050919050565b600060208201905081810360008301526133aa81612fe3565b9050919050565b600060208201905081810360008301526133ca81613006565b9050919050565b600060208201905081810360008301526133ea81613029565b9050919050565b6000602082019050818103600083015261340a8161304c565b9050919050565b6000602082019050818103600083015261342a8161306f565b9050919050565b6000602082019050818103600083015261344a81613092565b9050919050565b6000602082019050818103600083015261346a816130b5565b9050919050565b6000602082019050818103600083015261348a816130d8565b9050919050565b600060208201905081810360008301526134aa8161311e565b9050919050565b600060208201905081810360008301526134ca81613141565b9050919050565b600060208201905081810360008301526134ea81613164565b9050919050565b60006020820190506135066000830184613196565b92915050565b6000613516613527565b905061352282826137c7565b919050565b6000604051905090565b600067ffffffffffffffff82111561354c5761354b61389f565b5b613555826138ce565b9050602081019050919050565b600067ffffffffffffffff82111561357d5761357c61389f565b5b613586826138ce565b9050602081019050919050565b6000819050602082019050919050565b60008190508160005260206000209050919050565b600081519050919050565b600081519050919050565b600081519050919050565b6000602082019050919050565b600082825260208201905092915050565b600082825260208201905092915050565b600081905092915050565b600082825260208201905092915050565b600081905092915050565b600061363a82613749565b915061364583613749565b9250827fffffffffffffffffffffffffffffffffffffffffffffffffffffffffffffffff0382111561367a57613679613841565b5b828201905092915050565b600061369082613749565b915061369b83613749565b9250817fffffffffffffffffffffffffffffffffffffffffffffffffffffffffffffffff04831182151516156136d4576136d3613841565b5b828202905092915050565b60006136ea82613729565b9050919050565b60008115159050919050565b60007fffffffff0000000000000000000000000000000000000000000000000000000082169050919050565b600073ffffffffffffffffffffffffffffffffffffffff82169050919050565b6000819050919050565b82818337600083830152505050565b60005b83811015613780578082015181840152602081019050613765565b8381111561378f576000848401525b50505050565b600060028204905060018216806137ad57607f821691505b602082108114156137c1576137c0613870565b5b50919050565b6137d0826138ce565b810181811067ffffffffffffffff821117156137ef576137ee61389f565b5b80604052505050565b600061380382613749565b91507fffffffffffffffffffffffffffffffffffffffffffffffffffffffffffffffff82141561383657613835613841565b5b600182019050919050565b7f4e487b7100000000000000000000000000000000000000000000000000000000600052601160045260246000fd5b7f4e487b7100000000000000000000000000000000000000000000000000000000600052602260045260246000fd5b7f4e487b7100000000000000000000000000000000000000000000000000000000600052604160045260246000fd5b6000601f19601f8301169050919050565b7f4552433732313a2063616c6c6572206973206e6f7420746f6b656e206f776e6560008201527f72206f7220617070726f76656400000000000000000000000000000000000000602082015250565b7f4552433732313a207472616e7366657220746f206e6f6e20455243373231526560008201527f63656976657220696d706c656d656e7465720000000000000000000000000000602082015250565b7f4f776e61626c653a206e6577206f776e657220697320746865207a65726f206160008201527f6464726573730000000000000000000000000000000000000000000000000000602082015250565b7f4552433732313a207472616e736665722066726f6d20696e636f72726563742060008201527f6f776e6572000000000000000000000000000000000000000000000000000000602082015250565b7f4552433732313a20746f6b656e20616c7265616479206d696e74656400000000600082015250565b7f496e76616c6964206d696e7420616d6f756e7421000000000000000000000000600082015250565b7f4552433732313a207472616e7366657220746f20746865207a65726f2061646460008201527f7265737300000000000000000000000000000000000000000000000000000000602082015250565b7f4552433732313a20617070726f766520746f2063616c6c657200000000000000600082015250565b7f4552433732313a2061646472657373207a65726f206973206e6f74206120766160008201527f6c6964206f776e65720000000000000000000000000000000000000000000000602082015250565b7f4552433732313a206d696e7420746f20746865207a65726f2061646472657373600082015250565b7f4f776e61626c653a2063616c6c6572206973206e6f7420746865206f776e6572600082015250565b7f54686520636f6e74726163742069732070617573656421000000000000000000600082015250565b7f4552433732314d657461646174613a2055524920717565727920666f72206e6f60008201527f6e6578697374656e7420746f6b656e0000000000000000000000000000000000602082015250565b7f4552433732313a20696e76616c696420746f6b656e2049440000000000000000600082015250565b7f4552433732313a20617070726f76616c20746f2063757272656e74206f776e6560008201527f7200000000000000000000000000000000000000000000000000000000000000602082015250565b50565b7f4d617820737570706c7920657863656564656421000000000000000000000000600082015250565b7f4552433732313a20617070726f76652063616c6c6572206973206e6f7420746f60008201527f6b656e206f776e6572206f7220617070726f76656420666f7220616c6c000000602082015250565b7f496e73756666696369656e742066756e64732100000000000000000000000000600082015250565b613d23816136df565b8114613d2e57600080fd5b50565b613d3a816136f1565b8114613d4557600080fd5b50565b613d51816136fd565b8114613d5c57600080fd5b50565b613d6881613749565b8114613d7357600080fd5b5056fea26469706673582212203fe67d4b28cb0be37d8edb5bf7d61e7f7e7ff9f2833f67aed84da8950c3e192c64736f6c63430008010033697066733a2f2f516d5167516e54325235545131393941755738617874444b7a4537626632444b5a344c425967504d44554c5247672f68696464656e2e6a736f6e",
  "linkReferences": {},
  "deployedLinkReferences": {}
}